:100000000C942A000C943C000C943C000C943C0092
:100010000C943C000C943C000C943C000C943C0070
:100020000C943C000C943C000C943C000C943C0060
:100030000C943C000C943C000C943C000C943C0050
:100040000C943C000C943C000C943C000C943C0040
:100050000C943C0011241FBECFE5D8E0DEBFCDBF1D
:1000600010E0A0E6B0E001C01D92A039B107E1F7B1
:100070000E9462000C9482000C940000E0E6F0E024
:1000800080E09BE111821082928383838F5F34969C
:100090008830C1F7E0E8F0E082E095E1118210825B
:1000A0009283838334968F5F8630C1F78FEF8ABB4C
:1000B00084B38C6384BB8CEE95E89093610080934D
:1000C000600008952EE088E190E00FB6F894A895BE
:1000D00081BD0FBE21BD0E943E0088E281BB80E24F
:1000E00082BBE0E6F0E0F89470E2662780819181BF
:1000F000672762BBA8950197C8F30C947A0080E04B
:0801000090E00895F894FFCF90
:00000001FF
