:100000000C942A000C943C000C943C000C943C0092
:100010000C943C000C943C000C943C000C943C0070
:100020000C943C000C943C000C94C1000C943C00DB
:100030000C943C000C943C000C943C000C943C0050
:100040000C943C000C943C000C943C000C943C0040
:100050000C943C0011241FBECFE5D8E0DEBFCDBF1D
:1000600010E0A0E6B0E001C01D92A03BB107E1F7AF
:100070000E9447000C948B010C9400008DE083BF1C
:100080008EE18CBF89B7826089BF78940895E4E7D8
:10009000F0E020E030E088E491E0ABE341E050E0C4
:1000A00091838083A283BA01022E02C0660F771F5C
:1000B0000A94E2F7609563832F5F3F4F34962830B0
:1000C000310571F7909395008093940025E3209378
:1000D00096003BEF3093970090939900809398009F
:1000E00020939A0037EF30939B0090939D0080936C
:1000F0009C0020939E003FEE30939F009093A100C0
:100100008093A0002093A2008FED8093A3008FEF37
:100110008ABB1BBA84B38C6384BB85B3837C85BBE9
:1001200088E592E0909375008093740088E281BB2B
:1001300012BA0E943E0084E790E09093730080938F
:1001400072002EE088E190E00FB6F894A89581BD8A
:100150000FBE21BD9FEF80916400882309F4A8950C
:10016000809160008F3020F08E3130F08D3210F4AD
:10017000939AF1CF843610F49398EDCF909360006A
:10018000EACF1F920F920FB60F9211242F923F9237
:100190004F925F926F927F928F929F920F931F93D5
:1001A0002F933F934F935F938F939F93CF93DF93BF
:1001B000EF93FF93E0917200F0917300F894C28185
:1001C000D12D2C2E888033808FEF8325882988833A
:1001D000C6814C2E888057808FEF8525882988839B
:1001E000C2856C2E888073848FEF87258829888349
:1001F00093E080ECA8950197E9F793E080EA00810D
:100200001181248135814085518519130C94110188
:10021000081749F4C22D8880932C982098820C945A
:1002200013010000000039130C941F01281749F432
:10023000C42D8880952C982098820C942101000070
:10024000000059130C942D01481749F4C62D8880DD
:10025000972C982098820C942F01000000000197A1
:10026000A1F6C22D8880932C98209882C42D888076
:10027000952C98209882C62D8880972C982098825B
:10028000789484E790E09C01245F3F4FE817F907DA
:1002900039F430937300209372008EE18CBF22C03A
:1002A0009C01285E3F4F40E0E038F40739F09C01A4
:1002B0002C5D3F4F40E0EC38F40729F43093730095
:1002C000209372000FC020E0E839F20759F49093B0
:1002D00073008093720083E78CBF809160008F5F12
:1002E00080936000FF91EF91DF91CF919F918F916B
:1002F0005F914F913F912F911F910F919F908F9000
:100300007F906F905F904F903F902F900F900FBE17
:0A0310000F901F901895F894FFCF8E
:00000001FF
