:100000000C942A000C943C000C943C000C943C0092
:100010000C943C000C943C000C943C000C943C0070
:100020000C943C000C943C000C9494000C943C0008
:100030000C943C000C943C000C943C000C943C0050
:100040000C943C000C943C000C943C000C943C0040
:100050000C943C0011241FBECFE5D8E0DEBFCDBF1D
:1000600010E0A0E6B0E001C01D92A039B107E1F7B1
:100070000E947D000C94EA000C940000E0E6F0E0A1
:1000800080E09BE111821082928383838F5F34969C
:100090008830C1F7E0E8F0E082E095E1118210825B
:1000A0009283838334968F5F8630C1F78FEF8ABB4C
:1000B00084B38C6384BB82E18093620085E080938B
:1000C000630084E891E0909361008093600084ED88
:1000D00090E0909365008093640084E290E09093B8
:1000E00069008093680008958DE083BF8AEE8CBF1D
:1000F00089B7826089BF789408950E943E008FEF8F
:1001000081BB8DE083BF8AEE8CBF89B7826089BFD7
:1001100078942EE088E190E00FB6F894A89581BD20
:100120000FBE21BDA895FECF1F920F920FB60F9262
:1001300011248F939F93EF93FF9382B398E08927C5
:1001400082BBE0E6F0E0F8948FEF8BBB93E080ECAD
:10015000A8950197E9F792E088E500811181248153
:1001600035814085518519130C94BB00081729F47B
:10017000D8980C94C10000000000000000000000AE
:10018000000039130C94C900281729F4D9980C944D
:10019000CF00000000000000000000000000591324
:1001A0000C94D700481729F4DA980C94DD0000006D
:1001B000000000000000000000000197A1F61BBA3B
:1001C0007894FF91EF919F918F910F900FBE0F90B8
:0801D0001F901895F894FFCF71
:00000001FF
