:100000000C942A000C943C000C943C000C943C0092
:100010000C943C000C943C000C943C000C943C0070
:100020000C943C000C943C000C94EB000C943C00B1
:100030000C943C000C943C000C943C000C943C0050
:100040000C943C000C943C000C943C000C943C0040
:100050000C943C0011241FBECFE5D8E0DEBFCDBF1D
:1000600010E0A0E6B0E001C01D92A039B107E1F7B1
:100070000E94D4000C942D010C940000DF93CF93C8
:100080000F92CDB7DEB71982198228C08981882FD7
:1000900090E0880F991F880F991FFC01E05AFF4FCD
:1000A000118210828981882F90E0880F991F019614
:1000B000880F991FFC01E05AFF4F8BE180838981F3
:1000C000882F90E0880F991F880F991FFC01ED5928
:1000D000FF4F8981808389818F5F898389818830FF
:1000E000A8F288E089832BC08981882F90E0880F4F
:1000F000991F880F991FFC01E05AFF4F118210824F
:100100008981882F90E0880F991F0196880F991F89
:10011000FC01E05AFF4F85E180838981282F30E080
:100120008981482F4650C901880F991F880F991F50
:10013000FC01ED59FF4F408389818F5F898389815D
:100140008C3090F2EAE3F0E08FEF8083A4E3B0E03C
:10015000E4E3F0E080818C638C9382E18093620021
:1001600085E0809363008BE292E09093610080933E
:1001700060000F90CF91DF910895DF93CF93CDB7BB
:10018000DEB7E3E5F0E08DE08083ECE5F0E08AEEB9
:100190008083A9E5B0E0E9E5F0E0808182608C939E
:1001A0007894CF91DF910895DF93CF93CDB7DEB7E9
:1001B0000E943E00E1E3F0E08FEF80830E94BD00EB
:1001C00088E190E02EE00FB6F894A89581BD0FBEAF
:1001D00021BDA895FECF1F920F920FB60F9211244A
:1001E0008F939F93AF93BF93EF93FF93DF93CF933F
:1001F000CDB7DEB7A2E3B0E0E2E3F0E0908188E0C3
:1002000089278C93E0E6F0E0F894959A80EC93E0EF
:10021000A8950197E9F782E296E000811181191310
:100220000C941701081729F495980C941C010000F0
:100230000000000000000000019789F7959878946D
:10024000CF91DF91FF91EF91BF91AF919F918F91EE
:0E0250000F900FBE0F901F901895F894FFCFDF
:00000001FF
