:100000000C942A000C943C000C943C000C943C0092
:100010000C943C000C943C000C943C000C943C0070
:100020000C943C000C943C000C9471000C943C002B
:100030000C943C000C943C000C943C000C943C0050
:100040000C943C000C943C000C943C000C943C0040
:100050000C943C0011241FBECFE5D8E0DEBFCDBF1D
:1000600010E0A0E6B0E001C01D92AB3CB107E1F7A3
:100070000E943C010C9481020C94000008950895A4
:10008000E199FECF90E09FBB8EBB6DBBE29AE19AF7
:100090000895E199FECF90E09FBB8EBBE09A8DB3AF
:1000A00008958DE083BF8EE18CBF89B7826089BFE0
:1000B0000895809160008F3040F0809160008E3113
:1000C00050F0809160008D3210F4AF9A08958091C5
:1000D0006000843610F4AF9808958FEF809360002D
:1000E00008951F920F920FB60F9211242F923F92F4
:1000F0004F925F926F927F928F929F920F931F9376
:100100002F933F934F935F938F939F93CF93DF935F
:10011000EF93FF9316BEE0916200F0916300F894B4
:10012000C08DD12D2C2E888030A88FEF8325882973
:100130008883C28D4C2E888052A88FEF8525882910
:100140008883C48D6C2E888074A88FEF87258829BA
:10015000888394E080EB0197F1F793E080EA0081D7
:100160001181228133814481558119130C94C1007E
:10017000081749F4C22D8880932C982098820C94FB
:10018000C3000000000039130C94CF00281749F475
:10019000C42D8880952C982098820C94D100000062
:1001A000000059130C94DD00481749F4C62D8880CF
:1001B000972C982098820C94DF0000000000019793
:1001C000A1F6C22D8880932C98209882C42D888017
:1001D000952C98209882C62D8880972C98209882FC
:1001E000789488E790E09C012A5F3F4FE817F90771
:1001F00039F430936300209362008EE18CBF23C0FA
:100200009C01245F3F4F40E0EE37F40739F09C013A
:100210002E5E3F4F40E0E438F40729F4309363004A
:100220002093620010C0EA58F04069F49093630094
:100230008093620083E78CBF809160008F5F809322
:10024000600084E486BFFF91EF91DF91CF919F9191
:100250008F915F914F913F912F911F910F919F909F
:100260008F907F906F905F904F903F902F900F9066
:100270000FBE0F901F9018951F93A69AAE9AA79A3B
:10028000AF98B89AC09882E0809373009CE09093F6
:10029000740081E0809375001092760088E480936A
:1002A00077009093C0008FEF8093C9001092CA002E
:1002B00080E790E00E94F501E8E7F0E05BEF92E074
:1002C0008FEF5083918380AB329620E0E039F207C4
:1002D000C1F712BA81BB92E390838EEF80936400E2
:1002E00092838DEF8093650094835093660096838C
:1002F00047EF4093670090873FEE30936800928706
:100300002FED2093690094878FEB80936A00968786
:100310008FE780936B0085B3837C85BB84B38C634C
:1003200084BB85E3808B50936C00828B40936D007F
:10033000848B30936E00868B20936F008DE083BF9B
:100340008EE18CBF89B7826089BF7897F093630094
:10035000E09362001092600078942EE088E190E0D3
:100360000FB6F894A89581BD0FBE21BD11E0809114
:1003700061008823C9F5A8958091CA00813029F0D1
:10038000813030F0823041F526C00E94590024C0EF
:10039000E091C9002E2F332727FD30958091C000B2
:1003A00090E028173907A4F4809160008431A0F010
:1003B000EF5FE093C900F0E0DF01AA0FBB1FA85573
:1003C000BF4FEC59FF4F80818C931092600004C0A6
:1003D0001093CA0001C0F89406B607FEC8CF80E7A4
:1003E00090E00E94FF01C3CFFFCFFC018781880FFF
:1003F000816082B980E280B984E486BF0895DC011F
:1004000081B190E0887F907080389105E1F081386B
:10041000910544F4009709F46FC08036910509F006
:100420006DC00DC0883A910509F44DC0883B910517
:1004300009F449C0803A910509F060C037C084ECE6
:1004400086BF1C9208958C918823A1F493B11196D4
:100450009C93119784EC86BF983540F4FD01E90F19
:10046000F11D838112968C9312971CC012961C92D8
:10047000129718C0813019F484EC86BF13C011960E
:100480009C911197983528F483B1FD01E90FF11D76
:10049000838384EC86BF11968C9111978F5F1196A0
:1004A0008C9311978C918F5F8C9308958C918130F0
:1004B00029F411968C910E943E0020C08330F0F008
:1004C0000E943F001BC012968C91129783B984EC56
:1004D00086BF11968C9111978F5F11968C9311970F
:1004E000883538F4FD01E80FF11D838112968C9355
:1004F000089512961C92089584E901C084EC86BF89
:060500000895F894FFCFFE
:00000001FF
