:100000000C942A000C943C000C943C000C943C0092
:100010000C943C000C943C000C943C000C943C0070
:100020000C943C000C943C000C9484010C943C0017
:100030000C943C000C943C000C943C000C943C0050
:100040000C943C000C943C000C943C000C943C0040
:100050000C943C0011241FBECFE5D8E0DEBFCDBF1D
:1000600010E0A0E6B0E001C01D92A83CB107E1F7A6
:100070000E9447000C944E020C9400008DE083BF58
:100080008EE18CBF89B7826089BF78940895EF9222
:10009000FF920F931F9388E281BB12BAE0E8F0E071
:1000A00020E030E088E491E0ABE341E050E0918370
:1000B0008083A283BA01022E02C0660F771F0A94C2
:1000C000E2F7609563832F5F3F4F34962830310508
:1000D00071F79093A1008093A00025E32093A200E4
:1000E0003BEF3093A3009093A5008093A40020934E
:1000F000A60037EF3093A7009093A9008093A80043
:100100002093AA003FEE3093AB009093AD00809314
:10011000AC002093AE008FED8093AF008FEF8ABBD1
:100120001BBA84B38C6384BB85B3837C85BB88E5B1
:1001300092E090938100809380000E943E0080E8CE
:1001400090E090937F0080937E0082E082B984E407
:1001500086BF2EE088E190E00FB6F894A89581BDA7
:100160000FBE21BD21E030E064EC14E871E0E4ED65
:10017000FE2E0FEF80916400882309F0C3C0A8957C
:10018000809160008F3020F08E3130F08D3210F48D
:10019000939A06C0843610F4939802C000936000CE
:1001A00006B607FE8EC0959A81B190E0887F907068
:1001B0008838910509F481C0893891059CF480360E
:1001C000910549F18136910524F4009709F477C02F
:1001D00079C08836910509F44BC08038910509F043
:1001E00071C01DC0883B910509F44BC0893B910546
:1001F0004CF4803A910509F460C0883A910509F001
:1002000061C039C0803C910509F457C0883C910514
:1002100009F058C052C066BF1092610053C080916F
:100220006100882359F493B1943020F093B19093F6
:10023000630013C093B1909366000DC0909163006A
:10024000992331F443B1E82FF0E0EA59FF4F40839E
:1002500043B1941711F0109263008F5F8093610097
:10026000883158F116BF80916300809365002AC0E1
:100270007093640022C0709362008091800083B903
:100280001CC040916200842F90E0817090708227A2
:100290009327E42FE695F0E0EE0FFF1FEE0FFF1F10
:1002A000E80FF91FE058FF4F808183B94F5F4093FB
:1002B0006200483110F016BF05C066BF03C0F6BE2D
:1002C00001C0959880916100883109F053CFA6E66E
:1002D000B0E080E090E0ED90AC01417050704227BA
:1002E0005327E82FE695F0E0EE0FFF1FEE0FFF1FFC
:1002F000E40FF51FE058FF4FE08201968831910529
:1003000051F738CF959A36CF1F920F920FB60F92B2
:1003100011242F923F924F925F926F927F928F9211
:100320009F920F931F932F933F934F935F938F93BE
:100330009F93CF93DF93EF93FF93E0917E00F09133
:100340007F00F894C281D12D2C2E888033808FEFCE
:10035000832588298883C6814C2E888057808FEF1B
:10036000852588298883C2856C2E888073848FEFC9
:1003700087258829888393E080ECA8950197E9F781
:1003800093E080EA00811181248135814085518587
:1003900019130C94D401081749F4C22D8880932CAA
:1003A000982098820C94D6010000000039130C9418
:1003B000E201281749F4C42D8880952C9820988252
:1003C0000C94E4010000000059130C94F00148174C
:1003D00049F4C62D8880972C982098820C94F201BD
:1003E000000000000197A1F6C22D8880932C982070
:1003F0009882C42D8880952C98209882C62D88805C
:10040000972C98209882789480E890E09C01245F53
:100410003F4FE817F90739F430937F0020937E00AF
:100420008EE18CBF22C09C01285E3F4F40E0EC383B
:10043000F40739F09C012C5D3F4F40E0E839F407A8
:1004400029F430937F0020937E000FC020E0E43A2F
:10045000F20759F490937F0080937E0083E78CBF6E
:10046000809160008F5F80936000FF91EF91DF913A
:10047000CF919F918F915F914F913F912F911F91BC
:100480000F919F908F907F906F905F904F903F90D3
:100490002F900F900FBE0F901F901895F894FFCFDC
:00000001FF
