:100000000C942A000C943C000C943C000C943C0092
:100010000C943C000C943C000C943C000C943C0070
:100020000C943C000C943C000C94FD010C943C009E
:100030000C943C000C943C000C943C000C943C0050
:100040000C943C000C943C000C943C000C943C0040
:100050000C943C0011241FBECFE5D8E0DEBFCDBF1D
:1000600010E0A0E6B0E001C01D92A83CB107E1F7A6
:100070000E9458000C94C5020C940000E199FECF38
:1000800090E09FBB8EBB6DBBE29AE19A0895E19927
:10009000FECF90E09FBB8EBBE09A8DB308958DE0BC
:1000A00083BF8EE18CBF89B7826089BF7894089541
:1000B000BF92CF92DF92EF92FF920F931F93CF9355
:1000C000DF9388E281BB12BA959AE0E8F0E040E065
:1000D00050E0ABE361E070E0342F242F220FE19970
:1000E000FECF822F90E09FBB8EBBE09A8DB38183C1
:1000F000E199FECF2F5F822F90E09FBB8EBBE09AED
:100100008DB38083A283CB0102C0880F991F3A95DB
:10011000E2F7809583834F5F5F4F349648305105F7
:10012000D9F6E0EAF0E042E050E035E361E070E06B
:10013000242F2A5F220FE199FECF822F90E09FBBF0
:100140008EBBE09A8DB38183E199FECF2F5F822F22
:1001500090E09FBB8EBBE09A8DB380833283CB014E
:10016000042E02C0880F991F0A94E2F780958383BA
:1001700034964F5F5F4F20E0E03BF207C9F68FEF08
:100180008ABB1BBA84B38C6384BB85B3837C85BB79
:1001900095988DE083BF8EE18CBF89B7826089BF5F
:1001A000789480E890E090937F0080937E0082E0D6
:1001B00082B984E486BF2EE088E190E00FB6F8941F
:1001C000A89581BD0FBE21BDE1E0EE2EF12C01E02E
:1001D00014EC74E8D72E64EDC62EBB24BA9480913B
:1001E0006400882309F007C1A895809160008F30D2
:1001F00020F08E3130F08D3210F4939A06C08436A0
:1002000010F4939802C0B092600006B607FE8FC04B
:10021000959A81B190E0887F90708838910509F4B3
:1002200082C0893891059CF48036910549F1813668
:10023000910524F4892B09F478C07AC08836910599
:1002400009F44CC08038910509F072C01DC0883B8C
:10025000910509F44CC0893B91054CF4803A910515
:1002600009F461C0883A910509F062C03AC0803C47
:10027000910509F458C0883C910509F059C053C054
:1002800016BF1092610054C020916100222359F4DE
:1002900083B1843020F083B18093630013C083B1B5
:1002A000809366000DC090916300992331F483B16F
:1002B000E22FF0E0EA59FF4F808383B1981711F0E5
:1002C00010926300822F8F5F80936100883158F114
:1002D000D6BE80916300809365002AC000936400BD
:1002E00022C0009362008091800083B91CC02091DD
:1002F0006200822F90E08E259F2581709070E22F02
:10030000E695F0E0EE0FFF1FEE0FFF1FE80FF91F5D
:10031000E058FF4F808183B92F5F2093620028311E
:1003200010F0D6BE05C016BF03C0C6BE01C095986A
:1003300080916100883109F052CF80916500882357
:10034000E9F420E030E0C9018E259F25817090708E
:10035000E22FE695F0E0EE0FFF1FEE0FFF1FE80F14
:10036000F91FE058FF4FD901AA59BF4F8C918083E4
:100370002F5F3F4F2831310531F731CF853039F0CC
:100380008630C9F08430A1F50093640031C0F89440
:1003900020E030E0E199FECF3FBB2EBBE09A8DB369
:1003A000F901EA59FF4F80832F5F3F4F2831310514
:1003B00089F778941DC0F894C0E0D0E0CE018E2576
:1003C0009F25817090709E012695E22FF0E0EE0F40
:1003D000FF1FEE0FFF1FE80FF91FE058FF4F8C2F94
:1003E00060810E943E002196C831D10539F778948A
:1003F00010926500F4CE959AF2CE1F920F920FB62E
:100400000F9211242F923F924F925F926F927F92A0
:100410008F929F920F931F932F933F934F935F93CE
:100420008F939F93CF93DF93EF93FF93E0917E00A1
:10043000F0917F00F894C281D12D2C2E88803380DA
:100440008FEF832588298883C6814C2E888057802A
:100450008FEF852588298883C2856C2E88807384D8
:100460008FEF87258829888394E080EB0197F1F747
:1004700093E080EA00811181248135814085518596
:1004800019130C944C02081749F4C22D8880932C40
:10049000982098820C944E020000000039130C94AE
:1004A0005A02281749F4C42D8880952C98209882E8
:1004B0000C945C020000000059130C946802481769
:1004C00049F4C62D8880972C982098820C946A0253
:1004D000000000000197A1F6C22D8880932C98207F
:1004E0009882C42D8880952C98209882C62D88806B
:1004F000972C98209882789480E890E09C01245F63
:100500003F4FE817F90739F430937F0020937E00BE
:100510008EE18CBF21C09C01285E3F4F40E0EC384B
:10052000F40739F09C012C5D3F4F40E0E839F407B7
:1005300029F430937F0020937E000EC0E45AF040EF
:1005400059F490937F0080937E0083E78CBF809165
:1005500060008F5F80936000FF91EF91DF91CF91FA
:100560009F918F915F914F913F912F911F910F918B
:100570009F908F907F906F905F904F903F902F90C3
:0E0580000F900FBE0F901F901895F894FFCFAC
:00000001FF
