:100000000C942A000C943C000C943C000C943C0092
:100010000C943C000C943C000C943C000C943C0070
:100020000C943C000C943C000C9459000C943C0043
:100030000C943C000C943C000C943C000C943C0050
:100040000C943C000C943C000C943C000C943C0040
:100050000C943C0011241FBECFE5D8E0DEBFCDBF1D
:1000600011E0A0E6B0E001C01D92A831B107E1F7B0
:100070000E9424010C943D020C9400000895089500
:10008000E199FECF90E09FBB8EBB6DBBE29AE19AF7
:100090000895E199FECF90E09FBB8EBBE09A8DB3AF
:1000A00008958DE083BF8EE18CBF89B7826089BFE0
:1000B00008951F920F920FB60F9211242F923F9224
:1000C0004F925F926F927F928F929F920F931F93A6
:1000D0002F933F934F935F938F939F93CF93DF9390
:1000E000EF93FF9316BEE0917E00F0917F00F894AD
:1000F000C08DD12D2C2E888030A88FEF83258829A4
:100100008883C28D4C2E888052A88FEF8525882940
:100110008883C48D6C2E888074A88FEF87258829EA
:10012000888394E080EB0197F1F793E080EA008107
:100130001181228133814481558119130C94A900C6
:10014000081749F4C22D8880932C982098820C942B
:10015000AB000000000039130C94B700281749F4D5
:10016000C42D8880952C982098820C94B9000000AA
:10017000000059130C94C500481749F4C62D888017
:10018000972C982098820C94C700000000000197DB
:10019000A1F6C22D8880932C98209882C42D888047
:1001A000952C98209882C62D8880972C982098822C
:1001B000789480ED90E09C012A5F3F4FE817F907A3
:1001C00039F430937F0020937E008EE18CBF23C0F2
:1001D0009C01245F3F4F40E0E63DF40739F09C016D
:1001E0002E5E3F4F40E0EC3DF40729F430937F0052
:1001F00020937E0010C0E25EF04069F490937F008F
:1002000080937E0083E78CBF809160008F5F809336
:10021000600084E486BFFF91EF91DF91CF919F91C1
:100220008F915F914F913F912F911F910F919F90CF
:100230008F907F906F905F904F903F902F900F9096
:100240000FBE0F901F90189588E281BB12BA959A45
:10025000E0EDF0E020E030E0ABEF72E06BE341E096
:1002600050E0A0837183608FCA01022E02C0880F04
:10027000991F0A94E2F7809580AB2F5F3F4F32962B
:100280002830310571F7E0EEF0E022E030E078E56B
:10029000A2E065E341E050E07083A183608FCA0172
:1002A000022E02C0880F991F0A94E2F7809580AB56
:1002B00032962F5F3F4F80E0E83EF80769F78FEFF7
:1002C0008ABB1BBA84B38C6384BB85B3837C85BB38
:1002D00095988DE083BF8EE18CBF89B7826089BF1E
:1002E0007897F0937F00E0937E0081E08093CD00CB
:1002F0001092CE00A093CB008CE08093CC0088E4D9
:100300008093CF00CF0108970E94B10178942EE02E
:1003100088E190E00FB6F894A89581BD0FBE21BD8D
:1003200080916400909160008823D1F4A8959F305B
:1003300020F09E3140F09D3210F4939A05C094361F
:1003400010F09FEF01C0939806B607FEEFCF909391
:100350006000959A88EC90E00E94BB019598E0CFF0
:10036000FFCFFC018781880F816082B980E280B96C
:1003700084E486BF0895DC0181B190E0887F9070AD
:1003800080389105E1F08138910544F4009709F433
:100390006FC08036910509F06DC00DC0883A910597
:1003A00009F44DC0883B910509F449C0803A910594
:1003B00009F060C037C084EC86BF1C9208958C9110
:1003C0008823A1F493B111969C93119784EC86BF76
:1003D0009D3440F4FD01E90FF11D838112968C9349
:1003E00012971CC012961C92129718C0813019F4F3
:1003F00084EC86BF13C011969C9111979D3428F40C
:1004000083B1FD01E90FF11D838384EC86BF119652
:100410008C9111978F5F11968C9311978C918F5FB0
:100420008C9308958C91813029F411968C910E94BF
:100430003E0020C08330F0F00E943F001BC01296A7
:100440008C91129783B984EC86BF11968C91119789
:100450008F5F11968C9311978D3438F4FD01E80F5E
:10046000F11D838112968C93089512961C92089523
:0E04700084E901C084EC86BF0895F894FFCFA4
:00000001FF
