:100000000C942A000C943C000C943C000C943C0092
:100010000C943C000C943C000C943C000C943C0070
:100020000C943C000C943C000C9469000C943C0033
:100030000C943C000C943C000C943C000C943C0050
:100040000C943C000C943C000C943C000C943C0040
:100050000C943C0011241FBECFE5D8E0DEBFCDBF1D
:1000600010E0A0E6B0E001C01D92AB3CB107E1F7A3
:100070000E9436010C94A8020C9400000895089583
:10008000E199FECF90E09FBB8EBB6DBBE29AE19AF7
:100090000895E199FECF90E09FBB8EBBE09A8DB3AF
:1000A00008958DE083BF8EE18CBF89B7826089BFE0
:1000B0000895809160008A3010F4AF9A089580917D
:1000C0006000833110F4AF9808958FEF8093600043
:1000D00008951F920F920FB60F9211242F923F9204
:1000E0004F925F926F927F928F929F920F931F9386
:1000F0002F933F934F935F938F939F93CF93DF9370
:10010000EF93FF9316BEC198E0916200F0916300F7
:10011000F894C08DD12D2C2E888030A88FEF8325A8
:1001200088298883C28D4C2E888052A88FEF852520
:1001300088298883C48D6C2E888074A88FEF8725CA
:100140008829888394E080EB0197F1F793E080EAB7
:1001500000811181228133814481558119130C94CE
:10016000BA00081749F4C22D8880932C98209882F1
:100170000C94BC000000000039130C94C800281730
:1001800049F4C42D8880952C982098820C94CA003C
:100190000000000059130C94D600481749F4C62DEE
:1001A0008880972C982098820C94D800000000003A
:1001B0000197A1F6C22D8880932C98209882C42D97
:1001C0008880952C98209882C62D8880972C98201E
:1001D0009882789488E790E09C012A5F3F4FE81767
:1001E000F90739F430936300209362008EE18CBFED
:1001F00024C09C01245F3F4F40E0EE37F40739F004
:100200009C012E5E3F4F40E0E438F40729F4309320
:1002100063002093620011C0EA58F04071F490939B
:1002200063008093620083E78CBF809160008F5FE2
:100230008093600084E486BFC19AFF91EF91DF91C3
:10024000CF919F918F915F914F913F912F911F91EE
:100250000F919F908F907F906F905F904F903F9005
:100260002F900F900FBE0F901F9018950F931F9314
:10027000A69AAE9AA79AAF98B89AC098B99AC19818
:1002800082E0809373009CE09093740081E08093FF
:1002900075001092760088E4809377009093C000F8
:1002A0008FEB91E09093C2008093C1008FEF809319
:1002B000C9001092CA0080E790E00E941C02E8E7A3
:1002C000F0E027E491E08FEF2083918380AB3296BA
:1002D00030E0E039F307C1F712BA81BB92E39083B3
:1002E0008EEF8093640092838DEF809365009483FA
:1002F0005BEF50936600968347EF409367009087CB
:100300003FEE3093680092872FED20936900948729
:100310008FEB80936A0096878FE780936B0085B39D
:10032000837C85BB84B38C6384BB85E3808B5093D3
:100330006C00828B40936D00848B30936E00868BB3
:1003400020936F008DE083BF8EE18CBF89B7826000
:1003500089BF80EC87B987E886B980E888B9789743
:10036000F0936300E09362001092600078942EE0B6
:1003700088E190E00FB6F894A89581BD0FBE21BD2D
:1003800001E012E080916100882309F054C0A89533
:100390008091CA00882319F0823049F527C00E9455
:1003A0005900E091C9002E2F332727FD3095809109
:1003B000C00090E028173907ACF4809160008431C8
:1003C000B0F0EF5FE093C900E150F0E0DF01AA0F69
:1003D000BB1FA855BF4FEC59FF4F80818C931092E3
:1003E000600005C00093CA00AF9A01C0F894369926
:1003F00007C084B195B19093C6008093C500369A2A
:100400002091C5003091C6008091C1009091C2003A
:100410002817390740F48091C90087FD04C0AF98C0
:10042000C09A1093CA0006B607FEACCF80E790E0F2
:100430000E942602A7CFFFCFFC018781880F816031
:1004400082B980E280B984E486BF0895DC0181B17D
:1004500090E0887F907080389105E1F081389105B7
:1004600044F4009709F46FC08036910509F06DC01F
:100470000DC0883A910509F44DC0883B910509F4F7
:1004800049C0803A910509F060C037C084EC86BF4E
:100490001C9208958C918823A1F493B111969C939A
:1004A000119784EC86BF983540F4FD01E90FF11DEA
:1004B000838112968C9312971CC012961C921297ED
:1004C00018C0813019F484EC86BF13C011969C913A
:1004D0001197983528F483B1FD01E90FF11D83834D
:1004E00084EC86BF11968C9111978F5F11968C9337
:1004F00011978C918F5F8C9308958C91813029F4A2
:1005000011968C910E943E0020C08330F0F00E9432
:100510003F001BC012968C91129783B984EC86BF62
:1005200011968C9111978F5F11968C931197883546
:1005300038F4FD01E80FF11D838112968C93089524
:1005400012961C92089584E901C084EC86BF089538
:04055000F894FFCF4D
:00000001FF
