:100000000C942A000C943C000C943C000C943C0092
:100010000C943C000C943C000C943C000C943C0070
:100020000C943C000C943C000C9459000C943C0043
:100030000C943C000C943C000C943C000C943C0050
:100040000C943C000C943C000C943C000C943C0040
:100050000C943C0011241FBECFE5D8E0DEBFCDBF1D
:1000600011E0A0E6B0E001C01D92A731B107E1F7B1
:100070000E9424010C941B020C9400000895089522
:10008000E199FECF90E09FBB8EBB6DBBE29AE19AF7
:100090000895E199FECF90E09FBB8EBBE09A8DB3AF
:1000A00008958DE083BF8EE18CBF89B7826089BFE0
:1000B00008951F920F920FB60F9211242F923F9224
:1000C0004F925F926F927F928F929F920F931F93A6
:1000D0002F933F934F935F938F939F93CF93DF9390
:1000E000EF93FF9316BEE0917E00F0917F00F894AD
:1000F000C08DD12D2C2E888030A88FEF83258829A4
:100100008883C28D4C2E888052A88FEF8525882940
:100110008883C48D6C2E888074A88FEF87258829EA
:10012000888394E080EB0197F1F793E080EA008107
:100130001181228133814481558119130C94A900C6
:10014000081749F4C22D8880932C982098820C942B
:10015000AB000000000039130C94B700281749F4D5
:10016000C42D8880952C982098820C94B9000000AA
:10017000000059130C94C500481749F4C62D888017
:10018000972C982098820C94C700000000000197DB
:10019000A1F6C22D8880932C98209882C42D888047
:1001A000952C98209882C62D8880972C982098822C
:1001B00078948FEC90E09C012A5F3F4FE817F90795
:1001C00039F430937F0020937E008EE18CBF23C0F2
:1001D0009C01245F3F4F40E0E53DF40739F09C016E
:1001E0002E5E3F4F40E0EB3DF40729F430937F0053
:1001F00020937E0010C0E15EF04069F490937F0090
:1002000080937E0083E78CBF809160008F5F809336
:10021000600084E486BFFF91EF91DF91CF919F91C1
:100220008F915F914F913F912F911F910F919F90CF
:100230008F907F906F905F904F903F902F900F9096
:100240000FBE0F901F9018951F9388E281BB12BAC2
:10025000959AEFECF0E020E030E0ABEF72E06BE37A
:1002600041E050E0A0837183608FCA01022E02C07A
:10027000880F991F0A94E2F7809580AB2F5F3F4F5C
:1002800032962830310571F7EFEDF0E022E030E0F2
:1002900078E5A2E065E341E050E07083A183608FE0
:1002A000CA01022E02C0880F991F0A94E2F78095B6
:1002B00080AB32962F5F3F4F80E0E73EF80769F74B
:1002C0008FEF8ABB1BBA84B38C6384BB85B3837CFA
:1002D00085BB95988DE083BF8EE18CBF89B7826026
:1002E00089BF7897F0937F00E0937E0081E0809350
:1002F000CC001092CD00A093CA008CE08093CB007C
:1003000088E48093CE00CF0107970E94B1017894D2
:100310002EE088E190E00FB6F894A89581BD0FBE5D
:1003200021BD1FEF809164008823C9F4A8958091B6
:1003300060008F3020F08E3130F08D3210F4939ABF
:1003400006C0843610F4939802C01093600006B67D
:1003500007FEE8CF88EC90E00E94BB01E3CF959ABE
:10036000E1CFFC018681880F816082B980E280B98B
:1003700084E486BF0895DC0181B190E0887F9070AD
:1003800080389105C1F08138910544F4009709F453
:100390004DC08036910509F04BC00BC0883A9105DD
:1003A000A9F1883B910591F1803A910509F040C08F
:1003B00020C01C923DC08C91882311F483B110C0E1
:1003C000813089F011969C9111979D3428F483B166
:1003D000FD01E90FF11D828311968C9111978F5FBA
:1003E00011968C93119784EC86BF8C918F5F8C93C0
:1003F00008958C91813029F411968C910E943E00D1
:1004000017C08330A8F00E943F0012C011969C9143
:1004100011979D3448F4FD01E90FF11D828183B9E4
:100420009F5F11969C9304C013B802C084E901C079
:0A04300084EC86BF0895F894FFCF16
:00000001FF
