:100000000C942A000C9447000C9447000C94470071
:100010000C9447000C9447000C9447000C94ED019D
:100020000C9447000C9447000C9483010C944700F7
:100030000C9447000C9447000C9447000C94470024
:100040000C9447000C9447000C9447000C94470014
:100050000C94470011241FBECFE5D8E0DEBFCDBF12
:1000600010E0A0E6B0E0EEEAF5E002C005900D92E7
:10007000A236B107D9F710E0A2E6B0E001C01D92A8
:10008000A93AB107E1F70E942A010C94D5020C9419
:10009000000006B607FE8BC081B190E0887F9070AB
:1000A0008838910509F47EC0893891059CF4803622
:1000B000910549F18136910524F4892B09F475C025
:1000C00008958836910509F44EC08038910509F0ED
:1000D0006EC01EC0883B910509F450C0893B910554
:1000E0004CF4803A910509F45DC0883A910509F015
:1000F0005EC03DC0803C910509F454C0883C910528
:1001000009F055C04FC084EC86BF1092620008957C
:1001100020916200222359F483B1803320F483B10B
:100120008093640013C083B180938B000DC09091C5
:100130006400992331F483B1E22FF0E0E557FF4FDB
:10014000808383B1981711F010926400822F8F5F23
:10015000809362008C3030F184E886BF8091640027
:1001600080936600089581E0809365001BC081E064
:10017000809363008091670083B914C0209163006D
:10018000822F90E0FC01EE0FFF1FE80FF91FE959E5
:10019000FF4F808183B92F5F209363002C3010F0D4
:1001A00084E801C084EC86BF089584ED86BF08957D
:1001B000E199FECF90E09FBB8EBB6DBBE29AE19AC6
:1001C0000895E199FECF90E09FBB8EBBE09A8DB37E
:1001D0000895A8E6B0E020E030E05BE1422FE1992D
:1001E000FECF3FBB2EBBE09A9DB3892F8053813356
:1001F00008F098E45C9311964C931197F901E55738
:10020000FF4F90832F5F3F4F13962830310531F712
:10021000A0E8B0E028E030E045E1E199FECF3FBB47
:100220002EBBE09A9DB3892F8053813308F098E468
:100230004C93822F865011968C931197F901E557B4
:10024000FF4F908313962F5F3F4F80E0AC38B80785
:1002500021F708951F93CF93DF9382E082B984E45E
:1002600086BF0E94E9001FBC8CE08EBD80E690E056
:100270009BBD8ABD13BE8AEF8CBF89B7806189BFE1
:1002800089E691E090939A00809399008FEF8ABB62
:1002900084B38C6384BB81B3886281BB2EE088E128
:1002A00090E00FB6F894A89581BD0FBE21BD78945B
:1002B00080916500882309F4A8950E9449008091E7
:1002C00066008823A9F3939A823039F0833051F085
:1002D0008130A9F48093650012C0F8940E94E9006F
:1002E00078940DC0F894C7E6D0E010E0812F6881C3
:1002F0000E94D8001F5F23961C30C1F7789410929B
:1003000066009398D5CF1F920F920FB60F921124CB
:100310002F938F939F93AF93BF93EF93FF939091FE
:1003200098009F5F90939800209197002150209310
:1003300097008091A8009817D1F4822F90E0FC01DB
:10034000EE0FFF1FE80FF91FE959FF4FA181B0E041
:1003500090962C91909781E090E0028002C0880FE7
:10036000991F0A94E2F78095282390962C93209168
:100370009700215020939700909198008091A700BA
:100380009817D1F4822F90E0FC01EE0FFF1FE80FC9
:10039000F91FE959FF4FA181B0E090962C919097F9
:1003A00081E090E0028002C0880F991F0A94E2F772
:1003B0008095282390962C93809197008E5F809350
:1003C0009700FF91EF91BF91AF919F918F912F91E6
:1003D0000F900FBE0F901F9018951F920F920FB69F
:1003E0000F9211242F933F938F939F93AF93BF93BB
:1003F000EF93FF9382B390E2892782BB89B78D7F09
:1004000089BF13BE12BE10929800E0919700EE23B0
:1004100029F480E690E09BBD8ABD03C0EC3009F46E
:10042000AFC02E2F30E0F901E557FF4FE081E132F8
:1004300071F4F901EE0FFF1FE20FF31FE959FF4FAF
:100440008081803610F48F5F10C080E60EC0D90125
:10045000AA0FBB1FE63169F4FD01E20FF31FE95952
:10046000FF4F8081813318F08150808307C080E383
:10047000FCCFA20FB31FA959BF4FEC93F901EE0FA8
:10048000FF1FE20FF31FE959FF4FA181B0E09096E3
:100490002C91909781E090E0028002C0880F991F14
:1004A0000A94E2F7282B90962C9320919700822FA4
:1004B00090E0FC01EE0FFF1FE80FF91FE959FF4F15
:1004C00080818093A7002F5F2093970030E0F9018F
:1004D000E557FF4FE081E13271F4F901EE0FFF1FA4
:1004E000E20FF31FE959FF4F8081803610F48F5FD0
:1004F00010C080E60EC0D901AA0FBB1FE63169F417
:10050000FD01E20FF31FE959FF4F8081813318F09D
:100510008150808307C080E3FCCFA20FB31FA9598D
:10052000BF4FEC93F901EE0FFF1FE20FF31FE959E4
:10053000FF4FA181B0E090962C91909781E090E0E0
:10054000028002C0880F991F0A94E2F7282B909628
:100550002C9320919700822F90E0FC01EE0FFF1F5B
:10056000E80FF91FE959FF4F80818093A8002F5FA2
:100570002093970089E083BF89B7826089BF08C054
:10058000109297008091990090919A009BBD8ABD2E
:10059000FF91EF91BF91AF919F918F913F912F91DB
:0E05A0000F900FBE0F901F901895F894FFCF8C
:0205AE00000C3F
:00000001FF
