:100000000C942A000C9447000C9447000C94470071
:100010000C9447000C9447000C9447000C94830107
:100020000C9447000C9447000C9417010C94470063
:100030000C9447000C9447000C9447000C94470024
:100040000C9447000C9447000C9447000C94470014
:100050000C94470011241FBECFE5D8E0DEBFCDBF12
:1000600010E0A0E6B0E0E8E1F5E002C005900D92F6
:10007000A636B107D9F710E0A6E6B0E001C01D92A0
:10008000AD3AB107E1F70E94BA000C948A020C94D1
:10009000000006B607FE6DC082B398E0892782BBD8
:1000A00081B190E0887F90708838910509F45CC038
:1000B0008938910594F48036910521F181369105B6
:1000C00024F4892B09F453C008958836910591F1E1
:1000D0008038910509F04DC01AC0883B9105A9F1FF
:1000E000893B910544F4803A9105F1F1883A9105F4
:1000F00009F03FC023C0803C9105B1F1883C9105D7
:10010000C1F532C084EC86BF1092660008958091DC
:10011000660093B1E82FF0E0E556FF4F90838F5FC4
:10012000809366008C3000F184E886BF81E0809384
:100130006800089581E080936A0016C081E0809392
:1001400067008091620083B90FC080916700E82F3B
:10015000F0E0EE59FF4F908193B98F5F8093670075
:10016000833010F084E801C084EC86BF089584EDEC
:1001700086BF089582E082B984E486BFABE6B0E032
:1001800080E090E05BE128E430E048E412965C9384
:10019000129713968C93139711963C932E93FC0110
:1001A000E556FF4F4083019614968830910571F70C
:1001B000EBE8F0E0A3EAB0E082E045E128E430E0DB
:1001C00098E442838383318320839D938F5F3496A9
:1001D0008630B9F71FBC8CE08EBD80E690E09BBDF9
:1001E0008ABD13BE8AEF8CBF89B7806189BF89E65B
:1001F00091E09093AA008093A9008FEF8ABB84B30B
:100200008C6384BB81B3886281BB2EE088E190E07F
:100210000FB6F894A89581BD0FBE21BD789480914A
:100220006A00882309F4A8950E944900F8CF1F921C
:100230000F920FB60F9211242F938F939F93AF932A
:10024000BF93EF93FF939091A8009F5F9093A800B6
:10025000E091A700E150E093A7008091AC009817CF
:10026000D9F4F0E0EE0FFF1FEE0FFF1FDF01A359DF
:10027000BF4FAC91B0E090962C919097E559FF4F0D
:1002800081E090E0038002C0880F991F0A94E2F792
:100290008095282390962C93E091A700E150E0935D
:1002A000A7009091A8008091AB009817D9F4F0E0D6
:1002B000EE0FFF1FEE0FFF1FDF01A359BF4FAC91E1
:1002C000B0E090962C919097E559FF4F81E090E037
:1002D000038002C0880F991F0A94E2F780952823B3
:1002E00090962C938091A7008E5F8093A700FF913A
:1002F000EF91BF91AF919F918F912F910F900FBE72
:100300000F901F9018951F920F920FB60F92112405
:100310002F933F938F939F93AF93BF93EF93FF934D
:1003200082B390E2892782BB2091690082E028276E
:100330002093690089B78D7F89BF13BE12BE1092CA
:10034000A8003091A700332329F480E690E09BBDFC
:100350008ABD03C03C3009F4C8C0222391F1832F29
:1003600090E0FC01E556FF4F2081213289F4FC0129
:10037000EE0FFF1FEE0FFF1FE559FF4F80819181A8
:100380008036910510F4019612C080E690E00FC00F
:10039000FC01EE0FFF1FEE0FFF1F263171F4E55930
:1003A000FF4F808191818133910520F001979183E6
:1003B000808307C080E390E0FACFE559FF4F2083A8
:1003C0001182E32FF0E0EE0FFF1FEE0FFF1FDF01A2
:1003D000A359BF4FAC91B0E090962C919097E559FE
:1003E000FF4F81E090E0038002C0880F991F0A94BC
:1003F000E2F7282B90962C939091A700E92FF0E03C
:10040000EE0FFF1FEE0FFF1FE559FF4F8081809316
:10041000AB00809169008823B1F1892F8F5F8093B1
:10042000A70090E0FC01E556FF4F2081213289F4BE
:10043000FC01EE0FFF1FEE0FFF1FE559FF4F8081FC
:1004400091818036910510F4019612C080E690E00B
:100450000FC0880F991F880F991F263179F4FC016E
:10046000E559FF4F808191818133910520F00197FB
:100470009183808308C080E390E0FACFFC01E559C6
:10048000FF4F20831182E091A700F0E0EE0FFF1FE5
:10049000EE0FFF1FDF01A359BF4FAC91B0E0909664
:1004A0002C919097E559FF4F81E090E0038002C0C6
:1004B000880F991F0A94E2F7282B90962C9390911D
:1004C000A700E92FF0E0EE0FFF1FEE0FFF1FE55929
:1004D000FF4F80818093AC009F5F9093A70089E0DD
:1004E00083BF89B7826089BF08C01092A70080913E
:1004F000A9009091AA009BBD8ABDFF91EF91BF9189
:10050000AF919F918F913F912F910F900FBE0F90C0
:080510001F901895F894FFCF2D
:06051800000C12000000BF
:00000001FF
