:100000000C942A000C943C000C943C000C943C0092
:100010000C943C000C943C000C943C000C943C0070
:100020000C943C000C943C000C94B0000C943C00EC
:100030000C943C000C943C000C943C000C943C0050
:100040000C943C000C943C000C943C000C943C0040
:100050000C943C0011241FBECFE5D8E0DEBFCDBF1D
:1000600010E0A0E6B0E001C01D92A239B107E1F7AF
:100070000E9492000C947E010C940000E2E6F0E0F5
:1000800020E030E040EA53E0ABE361E070E0518310
:100090004083A283CB01022E02C0880F991F0A94CD
:1000A000E2F7809583832F5F3F4F3496475350404C
:1000B0002830310561F7E2E8F0E048EE51E022E057
:1000C00030E0A5E361E070E051834083A283CB017F
:1000D000022E02C0880F991F0A94E2F7809583834D
:1000E0003496475350402F5F3F4F80E0E239F80786
:1000F00059F78FEF8ABB1BBA84B38C6384BB85B37B
:10010000837C85BB88E592E09093630080936200D6
:1001100008958DE083BF8AEE8CBF89B7826089BF66
:10012000789408950E943E008FEF81BB12BA8DE053
:1001300083BF8AEE8CBF89B7826089BF789482E6DC
:1001400090E090936100809360002EE088E190E061
:100150000FB6F894A89581BD0FBE21BDA895FECF1E
:100160001F920F920FB60F9211242F923F924F922F
:100170005F926F927F928F929F920F931F932F9314
:100180003F934F935F936F937F938F939F93CF93FF
:10019000DF93EF93FF9382B398E0892782BBE091CE
:1001A0006000F0916100F894C281D12D2C2E8880DE
:1001B0003380AFEFA325A829A883C6814C2E888061
:1001C0005780AFEFA525A829A883C2856C2E88800B
:1001D0007384AFEFA725A829A88393E080ECA895A6
:1001E0000197E9F793E080EA00811181248135814C
:1001F0004085518519130C940601081749F4C22D46
:100200008880932C982098820C94080100000000AC
:1002100039130C941401281749F4C42D8880952CA7
:10022000982098820C9416010000000059130C9439
:100230002201481749F4C62D8880972C982098826F
:100240000C942401000000000197A1F6B22D8880D3
:10025000932C98209882B42D8880952C9820988291
:10026000B62D8880972C98209882789482E690E02A
:100270009C01245F3F4FE817F90741F43093610078
:1002800020936000959A8EE18CBF1DC09C01285E72
:100290003F4F40E0EE36F40739F09C012C5D3F4FB4
:1002A00040E0EA37F40729F43093610020936000BE
:1002B0000AC0E658F04039F49093610080936000E2
:1002C00083E78CBF9598FF91EF91DF91CF919F913C
:1002D0008F917F916F915F914F913F912F911F91DE
:1002E0000F919F908F907F906F905F904F903F9075
:1002F0002F900F900FBE0F901F901895F894FFCF7E
:00000001FF
